:020000040800F2
:1000000010050020010100087B1C0008D316000821
:10001000791C0008A3070008351E00080000000036
:100020000000000000000000000000007F1C00082D
:10003000A5070008000000007D1C0008811C0008C6
:100040001B0100081B0100081B0100081B01000820
:100050001B0100081B0100081B0100081B01000810
:100060001B0100081B0100081B0100081B01000800
:100070001B0100081B0100081B0100081B010008F0
:100080001B0100081B0100081B0100081B010008E0
:100090001B0100081B0100081B0100081B010008D0
:1000A0001B0100081B0100081B0100081B010008C0
:1000B0001B0100081B010008000000001B010008D4
:1000C0001B01000800000000000000001B010008E8
:1000D000000000001B0100081B01000800000000D8
:1000E0001B0100081B0100081B010008DFF80CD0F1
:1000F00000F024FB00480047652700081005002099
:100100000648804706480047FEE7FEE7FEE7FEE7B1
:10011000FEE7FEE7FEE7FEE7FEE7FEE7D11C00088C
:10012000ED000008202A04DB203A21FA02F0002129
:10013000704721FA02F3D040C2F1200291400843F7
:1001400019467047D2B201E000F8012B491EFBD2DC
:1001500070470022F6E710B513460A4604461946D2
:10016000FFF7F0FF204610BD2DE9F04D81EA0304B2
:1001700004F0004B21F0004514464FF0000A23F034
:10018000004150EA050220D054EA01021DD0C5F317
:100190000A570246C5F31303C1F31300C1F30A560D
:1001A00040F4801543F48013A7EB0608101BD646D5
:1001B00008F2FD3873EB050002D308F1010801E0F5
:1001C00092185B41B8F1000F03DA00200146BDE848
:1001D000F08D00204FF48011064684460EE0171B78
:1001E00073EB050705D3121B63EB050306434CEACB
:1001F000010C49084FEA300092185B4150EA0107B0
:10020000EDD152EA030012D082EA040083EA05012C
:10021000084305D0101BAB4106D20122002306E0A3
:1002200000224FF0004302E06FF0010253101AEB7E
:1002300006004CEB085110EB0A0041EB0B01BDE846
:10024000F04D00F0D5B870B521F0004303430CD059
:10025000C1F30A550024D5EB040564EB0403D6175B
:10026000AD1AB34102DB0020014670BD201841EBFE
:10027000025170BD0EB5C10F80EAE0700844CA0794
:10028000002140F233438DE80E000A460B4600F091
:10029000BEF803B000BD00F0004230F000400AD0CC
:1002A000C10D01F56071C0F3160042EA0151C208A8
:1002B00040071143704700200146704701F000439A
:1002C00030B421F0004150EA010206D00A0DA2F537
:1002D0006072C1F31301002A02DC30BC00207047B9
:1002E000440F44EAC104C100E01830BC00EBC25026
:1002F00000F047B830B50B4601460020202201240B
:1003000009E021FA02F59D4205D303FA02F5491BE3
:1003100004FA02F52844151EA2F10102F1DC30BDF9
:100320002DE9F05F0546002092469B46884606462A
:10033000814640241BE02846414647462246FFF7B7
:10034000F1FE53465A46C01A914110D31146184641
:10035000224600F005FA2D1A67EB01084F462246A7
:100360000120002100F0FCF917EB00094E41201E8E
:10037000A4F10104DFDC484631462A464346BDE885
:10038000F09F0029A8BF7047401C490008BF20F01B
:100390000100704710B4B0FA80FC00FA0CF050EA8B
:1003A000010404BF10BC704749B1CCF1200421FA0C
:1003B00004F411FA0CF118BF012121430843A3EB07
:1003C0000C01CB1D4FEA00614FEA102042BF002014
:1003D00010BC704700EBC35010440029A4BF10BCF0
:1003E0007047401C490008BF20F0010010BC704756
:1003F00010B5141E73F1000408DA401C41F100012D
:1004000092185B411A4301D120F0010010BD2DE983
:10041000F04D92469B4611B1B1FA81F202E0B0FA7A
:1004200080F22032904600F09BF904460F4640EAE5
:100430000A0041EA0B0153465A46084313D01146BD
:1004400053EA010019D0C8F140025046FFF76AFE96
:1004500005460E4650465946424600F081F908438B
:1004600005D0012004E020463946BDE8F08D00208B
:10047000054346EAE0762C4337430A986305E40ACD
:10048000A0EB08000022FD0A44EA47540A3002D5D6
:1004900000200146E9E7010510196941DDE9084539
:1004A00000196941BDE8F04DA2E72DE9FE4F8046F5
:1004B00081EA0300C00F0C46009021F0004123F0B8
:1004C0000045B8EB0200A94105D2404621469046BE
:1004D0001C460B46024623F00040104347D0270D30
:1004E000C7F30A00C3F30A510290401A0190402852
:1004F0006BDAC3F3130040F4801B0098924620B1DE
:100500000023D2EB030A63EB0B0B01985946C0F1B1
:100510004002504600F024F906460D465046594622
:10052000019A00F02CF910EB08006141002487EAE1
:10053000115284EAE7731A4340D0009A62B3019AD9
:10054000012A4FEA075215DC001B61EB02014FF054
:10055000004202EA0752CDE90042001C41F5801139
:1005600032462B46FFF753FF03B0BDE8F08F4046FD
:100570002146F9E7001B61EB0201001C41F58013E5
:1005800000185B412018A2F5001747EB030140EA71
:10059000D570B6196D4111E06D084FEA360645EA8F
:1005A000C0754FEA0752001B61EB0201001C41F5C8
:1005B000801149084FEA30000019514132462B465C
:1005C00003B0BDE8F04FFFF713BF009801224000D1
:1005D0000023D0EB020263EBE073009821464FEA60
:1005E000E074B8EB000061EB0401E9E783F000433D
:1005F0005BE781F0004158E72DE9FE4F81EA0304F3
:1006000004F0004421F0004100944FF0000B23F06F
:10061000004350EA01045ED052EA03045BD0C3F306
:100620000A54C1F30A552C44A4F2F3340194A0FBFC
:100630000254C1F3130141F48011C3F3130343F4D3
:10064000801301FB024400FB034E840A970A44EA2C
:10065000815447EA8357A4FB076802958D0A05FB7E
:1006600007854FEA932C04FB0C542705029D4FEAA3
:10067000065847EA1637B5EB08056EEB070C870EF0
:10068000920E47EA811742EA8312A7FB0201B6EBFA
:100690000B0164EB00042B0D43EA0C335E1844EBB2
:1006A0001C50DA465146E7FB0201C5F313044FEA3A
:1006B0000B3343EA14534FEA0432019C43EA060326
:1006C000A4F10C040294009CCDE900B4FFF79FFE56
:1006D00003B0BDE8F08F00200146F9E7C1F30A52EC
:1006E000C1F3130140F2FF3341F480119A4202DA60
:1006F00000200146704740F233439A42A2F233424F
:1007000002DC5242FFF70EBD00F02AB830B5041EDD
:1007100071F1000404DB4FF00044404264EB01013E
:10072000141E73F1000405DB1C464FF000435242D7
:1007300063EB0403994208BF904230BD064C074D5D
:1007400006E0E06840F0010394E8070098471034A1
:10075000AC42F6D3FFF7CEFCEC2800080C290008C9
:10076000202A04DB203A00FA02F100207047914071
:10077000C2F1200320FA03F3194390407047202A66
:1007800006DBCB17203A41FA02F043EAE07306E0B9
:1007900041FA02F3D040C2F12002914008431946C9
:1007A0007047FEE77047000070B5044600F0FAF8A5
:1007B0000546601C02D004480078044400F0F2F8BA
:1007C000401BA042FAD370BD240000202DE9F84F51
:1007D000DFF89C91002409F1040A0AF1040B234676
:1007E0000F270BF1040EBBE00125A5402A40AA42C9
:1007F00076D1DFF880C14E68A6EB0C0866452BD099
:100800000DDC032E34D005DC36B3012E19D0022EB8
:100810002FD11BE0112E16D0122E2AD119E0B8F5D7
:10082000881F19D006DCB8F5803F15D0B8F5801FB9
:100830001FD111E0B8F5001F0ED0B8F5041F18D174
:100840000AE0CB6815E0CB681B1D12E0CB680833CB
:100850000FE0CB680C330CE08B682BB1012B4FF011
:10086000080303D0456104E0042302E0056100E0D1
:100870000023FF2A01D8064601E000F104064FEAF2
:10088000840501D9A5F12005D6F8008007FA05FCFA
:1008900028EA0C0803FA05F548EA0508C6F80080BE
:1008A0004D68ED005BD5344DAE6946F00106AE6192
:1008B000AD6924F0030605F0010500952F4D06EB08
:1008C000050CDCF80850A607360F07FA06F825EAEB
:1008D0000805DFF8AC80404503D14FF0000810E078
:1008E0003DE0DFF8A080404502D14FF0010808E06C
:1008F000DFF89480404502D14FF0020801E04FF04C
:10090000030808FA06F848EA0508CCF808804D689C
:10091000D9F80060ED034D4601D5164300E096433B
:100920002E604D68DAF80060AD03554601D51643D8
:1009300000E096432E604D68DBF80060ED025D46F6
:1009400001D5164300E096432E604D68DEF8006046
:10095000AD02754601D5164300E096432E60641C37
:100960000A6832FA04F57FF43FAFBDE8F88F000063
:10097000000401400000111000100240000001407E
:1009800000080140000C014000100140C2680A420A
:1009900001D041617047016170470AB10161704740
:1009A0000904FBE70148806870470000240000202C
:1009B00070B504001BD094F83D00002520B984F8E0
:1009C0003C50204600F056FA242084F83D00206870
:1009D000016821F00101016000F09CFB4D4A616853
:1009E000914201D84C4900E04C49884201D2012093
:1009F00070BD4B492368B0FBF1F15E6826F03F06FD
:100A00000E435E606368934206D94FF49673594370
:100A10004FF47A73B1FBF3F12368491C1E6A26F088
:100A20003F06314319626168914210D84900401E67
:100A3000B0FBF1F2521CC2F30B02042A01D20420D3
:100A400022E0B0FBF1F0401CC0F30B001CE0A368F7
:100A5000F3B301EBC10202EB0116421EB2FBF6F248
:100A6000521C42F48042120549D093B301EBC102FB
:100A700002EB0111401EB0FBF1F0401CC0F30B0073
:100A800040F4804040F400402168CA694CF6FF738E
:100A90009A431043C861D4E90701084321680A68F2
:100AA00022F0C00210430860D4E90301014320682A
:100AB000826848F2FF339A4311438160D4E905010B
:100AC00008432168CA6822F0FF021043C86001E0B1
:100AD0000EE016E02068016841F001010160256424
:100AE000202084F83D00256384F83E50002070BD2E
:100AF00001EB4106421EB2FBF6F2521CB3E70120A5
:100B0000C2E701EB4101401EB0FBF1F0401CC0F315
:100B10000B00B7E7A086010080841E0000093D009D
:100B200040420F002DE9FF4F83B09A46DDE911974F
:100B300093460446DDF84080FFF734FF054694F8FD
:100B40003D0020286FD1192301227B4920460095C2
:100B500000F0BAFE0028F5D194F83C00012862D0DC
:100B6000012084F83C0020680168C90703D10168AE
:100B700041F0010101602168086820F4006008600C
:100B8000222084F83D00402084F83E0000262664A0
:100B9000C4F82480A4F82A90608D20856748E0621C
:100BA000CDE9007553465A462046049900F0A9FD48
:100BB00000287DD1208DDFF8888168B1012814D00C
:100BC000022820D02068016841F48061016020681B
:100BD000416980690090A0E02068416981690091C5
:100BE000016841F40071016097E02068016821F418
:100BF0008061016072B62068416981690091016875
:100C000041F400710CE02168086840F4006008605D
:100C100072B62068416981690091016821F48061A0
:100C2000016062B679E084E003284FD801280BD038
:100C300002283B464FF000024146204600950ED068
:100C400000F042FEA0BB0FE02A463946204600F0E5
:100C5000BAFE68BB20680069616A087054E000F061
:100C600033FE28BB72B61AE02068016821F4806167
:100C7000016072B620680069616A0870606A401C91
:100C80006062208D401E2085608D401E60853B4641
:100C9000002241462046009500F016FE40B920682B
:100CA000016841F40071016020680069616A00E038
:100CB00012E00870606A401C6062218D491E218527
:100CC000618D491E618562B621681BE02A4639465E
:100CD000204600F078FE18B1012007B0BDE8F08F83
:100CE00020680069616A0870606A401C6062218D3A
:100CF000491E2185618D491E618521684A69D2435B
:100D000052070AD409690170606A401C6062208D34
:100D1000401E2085608D401E6085208D002883D177
:100D2000202084F83D0084F83E6084F83C60002078
:100D3000D3E70220D1E70000020010000000FFFF0F
:100D4000040001002DE9FF4F83B09A46DDE91197B9
:100D500093460446DDF84080FFF724FE054694F8EC
:100D60003D0020287FD119230122404920460095CB
:100D700000F0AAFD002876D194F83C00012872D03A
:100D8000012084F83C0020680168C90703D101688C
:100D900041F0010101602068016821F400610160F7
:100DA000212084F83D00402084F83E00002626647F
:100DB000C4F82480A4F82A90608D20852C48E06235
:100DC000CDE9007553465A462046049900F00CFDC3
:100DD00070B930E02A463946204600F027FE58B167
:100DE000206C042804D12068016841F4007101607E
:100DF000012007B0BDE8F08F606A216800780861C3
:100E0000606A401C6062218D491E89B22185628D15
:100E1000521E628522685369DB435B070BD469B1BC
:100E200000781061606A401C6062208D401E208541
:100E3000608D401E6085208D0028CBD12A46394622
:100E4000204600F01BFD0028CAD154F83D0B016874
:100E500041F400710160202004F81E09E6776677EE
:100E60000020C6E7FFE70220C3E7000002001000F1
:100E70000000FFFF10B586B00021009101910291A2
:100E800003910068104988421CD1104CA06940F0C1
:100E90000800A061A069694600F008000490C02025
:100EA0000090122001900120029003200390084836
:100EB000FFF78CFCE06940F40010E061E06900F4A9
:100EC0000010049006B010BD005400400010024015
:100ED000000C01400248816802781144816070472B
:100EE00024000020074810B5016841F0100101609E
:100EF000032000F067F8002000F006F800F024F866
:100F0000002010BD0020024070B50D4D04464FF486
:100F10007A712878B1FBF0F00A490968B1FBF0F06A
:100F200000F0DEFA48B9102C07D200222146501EEC
:100F300000F028F800206C6070BD012070BD00003A
:100F400024000020300000200C4808B5816941F0E1
:100F500001018161816901F001010091C16941F0E4
:100F60008051C161C06900F0805000900448416820
:100F700021F0E06141F00071416008BD00100240C5
:100F800000000140F0B40E4B1B680C46C3F3022373
:100F9000C3F10705042D00D90425191D072901D225
:100FA000002300E0DB1E012606FA05F1491E214060
:100FB00099409E40761E16403143F0BC00F04CBF75
:100FC0000CED00E0064900F0070208684FF6FF0349
:100FD000184040EA0220034A1043086070470000AE
:100FE0000CED00E00000FA052DE9F0470F46050082
:100FF00061D0434E306800F00700B84209D2306833
:1010000020F0070038433060306800F00700B84235
:1010100051D128683B4C810712D5400703D5606841
:1010200040F4E06060602878000703D5606840F411
:10103000605060606068A96820F0F000084360605C
:101040002878C00728D06868012810D021680228B5
:1010500010D0890700292EDA616821F003010143CD
:101060006160FFF79FFC804641F288390DE02168FE
:101070008903EFE78901EDE7FFF794FCA0EB080196
:10108000494502D90320BDE8F0876068696800F02F
:101090000C00B0EB810FEFD1306800F00700B842D0
:1010A0000BD9306820F0070038433060306800F01A
:1010B0000700B84201D00120E5E72878400705D5B0
:1010C0006068E96820F4E060084360602878000701
:1010D00006D56068296920F4605040EAC10060606C
:1010E00000F038F86168084AC1F30311515CC84048
:1010F0000649086006480068FFF706FF0020C2E7BF
:101100000020024000100240D428000830000020D7
:10111000280000200448054900684968044AC1F3D2
:101120000221515CC840704730000020001002408E
:10113000E42800080448054900684968044AC1F3E6
:10114000C221515CC84070473000002000100240AE
:10115000E428000812A185B00FC98DE80F0014A083
:10116000144A006804905168134801F00C03042BE2
:1011700010D0082B0ED1C1F38343C9031DF803001F
:101180000AD5516804AAC1F34041515C0A4A504350
:10119000B0FBF1F005B0704708494843FAE700009A
:1011A00002030405060708090A0B0C0D0E0F1010A8
:1011B000010200000010024000127A0000093D0008
:1011C0002DE9F84F040070D02078C04DC00749D0F9
:1011D0006868C0F38100012807D06868C0F3810007
:1011E000022809D16868C00306D52868800339D56C
:1011F00060680028E7D035E06068B0F5803F0BD02C
:1012000010B1B0F5A02F11D0286820F480302860EC
:10121000286820F4802002E0286840F480302860AC
:10122000606890B1FFF7BEFB06460AE0286840F40C
:1012300080202860F0E700BFFFF7B4FB801B642824
:1012400073D828688003F7D50CE0FFF7ABFB0646A0
:1012500005E000BFFFF7A6FB801B6428F0D82868D4
:101260008003F7D420789A4E80074FF001094FF0A1
:10127000000839D5686810F00C0F07D06868C0F313
:101280008100022809D16868C00306D42868800755
:1012900014D52069012808D110E02069B0B1C6F842
:1012A0000090FFF77FFB074605E00AE1FFF77AFBB6
:1012B000C01B0228C4D828688007F7D52868616950
:1012C00020F0F80040EAC10028600DE0C6F8008078
:1012D000FFF768FB074604E0FFF764FBC01B02282A
:1012E00023D828688007F7D4207800072CD57948C0
:1012F000A169D9B1C0F80090FFF754FB074604E09C
:10130000FFF750FBC01B02280FD8686A8007F7D58B
:1013100071484FF4FA510068B0FBF1F0009000BF43
:101320000098411E0091FAD20EE080E0C0F80080E3
:10133000FFF738FB074604E0FFF734FBC01B022829
:1013400075D8686A8007F7D42078400760D5E869C7
:101350000027C00008D4E86940F08050E861E869DF
:10136000012700F0805000905C480168C90513D443
:101370000168834641F480710160FFF713FB8246E8
:1013800006E000BFFFF70EFBA0EB0A0064284ED872
:10139000DBF80000C005F5D5E06801280AD008B1E7
:1013A000052813D0286A20F001002862286A20F05E
:1013B000040002E0286A40F001002862E06841F27F
:1013C000883B98B1FFF7EEFA82460BE0286A40F0BE
:1013D00004002862EEE700BFFFF7E4FAA0EB0A0181
:1013E00059455AD8286A8007F6D50CE0FFF7DAFA93
:1013F000824605E0FFF7D6FAA0EB0A0159454CD822
:10140000286A8007F6D41FB1E86920F08050E861AF
:10141000E06988B36968C1F38101022944D00228D8
:10142000C6F8608004D0FFF7BDFA044638E034E027
:10143000FFF7B8FA074604E0FFF7B4FAC01B02282A
:101440002BD828688001F7D4206AB0F5803F05D1F9
:101450006868A16820F4003008436860D4E9080196
:101460000843696821F4741108436860C6F8609005
:10147000FFF798FA044606E025E000BFFFF792FA6E
:10148000001B022809D828688001F7D51BE000BF9F
:10149000FFF788FA001B022802D90320BDE8F88F65
:1014A00028688001F4D40EE00128F7D06868226A29
:1014B00000F48031914204D1616A00F470108842D6
:1014C00001D00120EAE70020E8E700000010024018
:1014D0000000424280044242300000200070004080
:1014E00010B5401EB0F1807F01D3012010BD4FF038
:1014F000E02460610F21601700F0AEFC0020A061C5
:1015000007202061002010BD70B5040004D094F8BD
:101510003900002510B106E0012070BD84F8385074
:10152000204600F023F8242084F839002068C168A0
:1015300021F40051C160204600F0EEFB20680169F3
:1015400021F4904101612068416921F02A01416143
:101550002068C16841F40051C160E563202084F82F
:10156000390084F83A00002070BD000070B586B0E4
:1015700000240094019402940394234E03682349A9
:1015800002200322224DB34219D18B6943F48043D8
:101590008B618B6903F4804304938B6943F00403EC
:1015A0008B618969039201F0040104910102CDE984
:1015B000001069462846FFF709F928151BE0154E6B
:1015C000B3421FD1CB6943F40033CB61CB6903F441
:1015D000003304938B6943F004038B6189690392A0
:1015E00001F0040104910421CDE900106946284668
:1015F000FFF7ECF80820CDE900046946284602947C
:10160000FFF7E4F806B070BD00380140001002405A
:1016100000080140004400402DE9F843044690F8DA
:1016200039001F4616460D46202850D1A5B19EB15F
:1016300094F8380001284AD0012084F838004FF08F
:101640000008C4F83C80212084F83900FFF7AAF98B
:10165000A6848146E68426E00120BDE8F883E08C7C
:10166000401EE084A0684B46B0F5805F4FF000025A
:101670004FF080012046009703D000F0A9FBE8B9A5
:101680000DE000F0A5FBC8B928882168C0F3080068
:101690004860206908B16D1C05E0AD1C03E02168BD
:1016A00015F8010B4860E08C0028D8D14B46002289
:1016B00040212046009700F08BFB08B10320CCE7C7
:1016C000202084F8390084F838800020C5E7022003
:1016D000C3E7FEE701684A69D24352050FD46FF4AD
:1016E00080624A61002140F8301F202242738173DA
:1016F000026942F004020261017301207047002078
:1017000070472DE9F84F0446006889460B9D016833
:101710009846174641F4806101602068016841F4F1
:101720008071016000954FF0011A00225146204659
:101730000A9B00F0C9F8002853D1216809F0FE0087
:1017400008610AF1010B2B46594620460A9A00F01F
:10175000EFF8F0BB20684169806900902A46204676
:101760000A9900F063F940B1206C042839D120684F
:10177000016841F40071016033E0FEB2B8F1010F7D
:1017800009D02168380A08612A4620460A9900F0E3
:101790004DF90028E8D1206806612A4620460A99BA
:1017A00000F044F90028DFD12068016841F480711D
:1017B000016000950022514620460A9B00F084F803
:1017C00038B9216809F0FF0040F0010008612B469C
:1017D00000E006E0594620460A9A00F0A9F80028E1
:1017E00000D00120BDE8F88F2DE9F84304460068D9
:1017F0000D46DDE9089701689846164641F4807168
:1018000001604B4600224FF001112046009700F086
:101810005BF8E0B9216805F0FE0008613B464A46E6
:101820001549204600F084F888B92068416980692C
:1018300000903A464946204600F0F8F850B1206C36
:10184000042804D12068016841F40071016001207E
:10185000BDE8F883F5B2B8F1010F09D02168300A6C
:1018600008613A464946204600F0E0F80028E6D1F3
:10187000206805610020EBE70200010070B5164604
:101880000D4604460DE02046FFF724FF08B1012075
:1018900070BD681C05D0FFF785F8801BA84207D8EB
:1018A00035B120684069C0434007ECD4002070BDCA
:1018B000002044F8300F20216173A073216941F0AA
:1018C000200121612073E2E72DE9F0471E46904692
:1018D0000D460446C1F30747DDF8209008E0701C70
:1018E00006D0FFF75FF8A0EB0900B0420FD876B141
:1018F0002068012F18D0806925EA00000004000C40
:1019000014D000214145EAD00020BDE8F087002036
:1019100044F8300F20216173A073216941F0200148
:10192000216120730120F0E74069E5E70121E9E743
:101930002DE9F0479A4691460E46044600254FF0A1
:101940002008C1F3074725E020684069C0434005EF
:1019500014D42068016841F40071016021686FF4BB
:1019600080604861256384F83D8084F83E50206C97
:1019700040F00400206484F83C501FE0B9F1FF3FC0
:1019800008D0FFF70FF8A0EB0A0149450CD8B9F1D0
:10199000000F09D02068012F13D0806926EA0000CB
:1019A0000004000C0BD0CFE744F8305F84F80D80C2
:1019B000A573206940F02000206125730120BDE857
:1019C000F0874069EAE72DE9F041002590460E4690
:1019D0000446202717E04069C043C0060CD454F8E1
:1019E000301B6FF01000486144F810596777A577F5
:1019F000206A2062257717E0FEF7D4FFA0EB0800ED
:101A0000B04208D83EB120684169C9434906E2D4D2
:101A10000020BDE8F08144F8305F6773A57320694A
:101A200040F02000206125730120F2E770B51646D2
:101A30000D4604460DE02046FFF74CFE08B101209C
:101A400070BD681C05D0FEF7ADFF801BA84207D80B
:101A500035B120684069C0430006ECD4002070BD59
:101A6000002044F8300F20216173A073216941F0F8
:101A7000200121612073E2E7F0B585B0012504A8BB
:101A8000CDE900054FF47A742B467522D0210294DB
:101A90001B48FFF747F89DF8100068282ED1002753
:101AA00003AE8DF80C700096CDE9015401236B2232
:101AB000D0211348FFF746F907208DF80C00009657
:101AC000CDE9015401231922D0210D48FFF73AF93D
:101AD0008DF80C700096CDE9015401231C22D02111
:101AE0000748FFF72FF98DF80C700096CDE90154E7
:101AF00001231B22D0210248FFF724F905B0F0BDD5
:101B000038000020F0B585B04FF47A72062103A8A2
:101B10008DE8070001233B22D0211848FFF702F887
:101B2000BDF80C00164C40BA00B22080BDF80E1073
:101B300049BA0EB26680BDF8101049BA0DB2A58040
:101B4000FEF798FB6FF00D073A46FEF77CFBFEF7B9
:101B5000B5FBE0603046FEF78DFB3A46FEF773FBBF
:101B6000FEF7ACFB20612846FEF784FB3A46FEF701
:101B70006AFBFEF7A3FB606105B0F0BD38000020F2
:101B800000000020F0B585B04FF47A72062103A85A
:101B90008DE8070001234322D0211948FEF7C2FF38
:101BA000BDF80C00174C40BA00B2E080BDF80E1032
:101BB00049BA0EB22681BDF8101049BA0DB265813E
:101BC000FEF758FB104F00223B46FEF7CDFAFEF71A
:101BD00075FBA0613046FEF74DFB00223B46FEF749
:101BE000C3FAFEF76BFBE0612846FEF743FB0022D9
:101BF0003B46FEF7B9FAFEF761FB206205B0F0BD87
:101C000038000020000000200060604030B585B042
:101C1000002417480094019402940394816941F0D0
:101C200020018161816901F020010491816941F005
:101C300004018161816901F004010491816941F02D
:101C40000801816180690B4D00F0080004900022BA
:101C500002212846FEF7A1FE02210120CDE9001055
:101C6000CDE9024169462846FEF7B0FD05B030BD1A
:101C70000010024000080140FEE7704770477047BF
:101C8000FFF728B930B58FB028216846FEF761FA12
:101C900014210AA8FEF75DFA01210804002404912A
:101CA000CDE90010CDE908040294022507956846A5
:101CB000FFF786FA0F20CDE90A0580200C90C000BE
:101CC000CDE90D0400210AA8FFF78EF90FB030BD51
:101CD0000D48016841F00101016041680B4A114063
:101CE000416001680A4A11400160016821F48021C5
:101CF0000160416821F4FE0141604FF41F018160E1
:101D00000449C00308607047001002400000FFF85B
:101D1000FFFFF6FE08ED00E02DE9F0410446006803
:101D20000169E26821F44051114301612169A06811
:101D30000843616908432168CA6841F20C639A4309
:101D40000243CA6020684169A26921F440711143CD
:101D500041611E49206864253226884202D1FFF77E
:101D6000E9F901E0FFF7D6F900EBC00101EB001142
:101D700060686FF018078000B1FBF0F2B2FBF5F27B
:101D8000B1FBF0F37A4303EB8202B1FBF0F306EB15
:101D90000212B2FBF5F2B3FBF5F302F0F00202EB34
:101DA0000312B1FBF0F3B1FBF0F0B0FBF5F07843B8
:101DB00003EB800006EB0010B0FBF5F0216800F0AB
:101DC0000F0010448860BDE8F08100000038014039
:101DD0002DE9F041984617460E460446069D1DE043
:101DE000681C1BD02DB1FEF7DDFDA0EB0800A8425A
:101DF00014D92068C16821F4D071C160206841699C
:101E000021F001014161202084F8390084F83A0072
:101E1000002084F838000320BDE8F08120680068C5
:101E200036EA000004D00020B842D9D00020F3E701
:101E30000120F9E7FEE700000FB4054B10B503A938
:101E4000044A029800F0EAF810BC5DF814FB0000A8
:101E50004D270008340000200907090E002804DB84
:101E600000F1E02080F80014704700F00F0000F14E
:101E7000E02080F8141D704702E008C8121F08C156
:101E8000002AFAD170477047002001E001C1121FFB
:101E9000002AFBD1704700002DE9FF5F82B00021CE
:101EA000DDE90430020DDDF840B0034318D044F6FC
:101EB0001050A2F2FF3242431514119801281FD08E
:101EC000A5EB0B00401C5FEA000A4FF000064E4FE6
:101ED000DFF83891B046504615D5CAF1000413E03A
:101EE000119801244AA3012801D16FEA0B0102983D
:101EF000119AC0E90031C0E9024206B0BDE8F09F86
:101F0000CBF10000DFE704460021404A491842EBCC
:101F10000450CDE9001012E0E00707D032463B46FE
:101F200040464946FEF768FB8046894632463B46B6
:101F300010461946FEF760FB06460F466410002C5B
:101F4000EAD1DDE90401DDE90023BAF1000F06DA88
:101F5000FEF752FB42464B46FEF74EFB05E0FEF70E
:101F600003F942464B46FEF7FFF804460E460022B0
:101F7000284BFEF7CBFB03D84FF0FF30014607E0BC
:101F80000022254B20463146FEF78FFAFEF7A6FBCE
:101F9000102409E0002C0ADB0A220023FEF7C0F916
:101FA000039B30321A55641E50EA0102F2D1641CC0
:101FB000039AC4F111031444119A012A03D0012297
:101FC00008430DD10AE0084304D000204FF0110B64
:101FD000119072E7A3EB0B056D1E0DE05B4504DD70
:101FE0004FF0000205F1010504E003DA4FF00002B2
:101FF000A5F10105002AECD002981199C0E902313F
:10200000C0E9004579E70000000014400000F03FFF
:10201000300000000000F0430000E03F2DE9FF4FDA
:1020200095B09B468946064600250FE2252877D1C4
:1020300000242746F84A0121059400E0044316F8DD
:10204000013F203B01FA03F01042F7D130782A28F3
:1020500011D06FF02F033078A0F13002092A16D882
:10206000059A44F0020402EB820203EB42021044A0
:10207000761C0590EFE759F8042B0592002A03DA45
:10208000504244F40054059044F00204761C307829
:102090002E2816D116F8010F44F004042A280DD07A
:1020A0006FF02F023078A0F13003092B09D807EB2D
:1020B000870302EB4303C718761CF3E759F8047B48
:1020C000761C30786C280FD006DC4C2817D0682896
:1020D0000DD06A2814D104E0742810D07A280FD1CA
:1020E0000DE044F400140AE044F4801401E044F4E8
:1020F00040147278824202D104F58014761C761C5A
:10210000307866280BD013DC582877D009DC0028FB
:1021100075D04528F6D04628F4D047281AD19DE13D
:1021200018E0632835D0642879D0652812D195E16C
:10213000702873D008DC6728F1D069286FD06E282A
:102140000DD06F2806D1B5E073282CD0752875D036
:10215000782874D05A46179990476D1C75E1C4F3DE
:102160000250022809D003280DD0D9F80010042805
:102170000DD00D6009F1040967E1D9F80010EA17E4
:10218000C1E90052F6E7D9F800100D80F2E70D70B2
:10219000F0E719F8041B8DF8001000208DF80100FD
:1021A000EA46012003E059F804AB4FF0FF30610725
:1021B0004FF0000102D40DE008F101018846B94258
:1021C0000FDA8045F8DB1AF808100029F4D108E08E
:1021D00008F1010188468142FADB1AF8081000294B
:1021E000F6D105985B46A0EB080721463846179ABA
:1021F00000F094FA284400EB080507E04DE029E1DF
:102200000DE01AF8010B5A4617999047B8F10108EA
:10221000F7D25B4621463846179A13E142E00A227C
:102220000092C4F302524FF0000A022A08D059F873
:1022300004CB032A4FEAEC710AD00DE029E02AE032
:1022400009F1070121F00702F2E802C1914609E015
:102250000FFA8CFC4FEAEC71042A03D14FFA8CFC84
:102260004FEAEC71002907DA0A460021DCF1000C84
:1022700061EB02012D2202E0220504D52B228DF80C
:102280000420012203E0E20701D02022F7E7904674
:1022900059E00A2102E010220DE010214FF0000A5F
:1022A00000910BE010224FF0000A44F004040827CC
:1022B000009203E008224FF0000A0092C4F3025299
:1022C000022A05D059F804CB0021032A08D009E0DE
:1022D00009F1070121F00702F2E802C1914605E089
:1022E0001FFA8CFC042A01D10CF0FF0C4FF00008FF
:1022F000220728D5702806D0009B83F0100353EAEC
:102300000A0305D00EE040228DF80420012208E0E7
:102310005CEA010206D030228DF804208DF8050019
:1023200002229046009B83F0080353EA0A030AD175
:102330005CEA010201D1620705D530228DF8042044
:102340004FF001087F1E582804D034A003900EA837
:1023500002900DE036A0F9E753466046009AFDF77B
:10236000DFFF84460398825C0298401E0290027050
:102370005CEA0100F0D1029806A9081A00F1200ACF
:10238000600702D524F4803400E00127574502DDC0
:10239000A7EB0A0000E0002000EB0A01009005987E
:1023A0004144401A0590E00306D45B462146179A43
:1023B000059800F0B3F90544002706E001A85A4645
:1023C000C05D179990476D1C7F1C4745F6DBE00305
:1023D0000CD55B462146179A059800F09FF90544F5
:1023E00004E030205A46179990476D1C0099481E0A
:1023F00000900029F5DC08E0029802995A4600781E
:10240000491C0291179990476D1CBAF10001AAF17D
:10241000010AF1DC65E100000928010030313233A6
:102420003435363738396162636465660000000010
:1024300030313233343536373839414243444546FA
:102440000000000000F058F90544761C30780028A0
:102450007FF4ECAD19B02846BDE8F08F620700D4D8
:10246000062709F1070222F0070CFCE80223E146E7
:1024700003F000485FEA080C02D00FF2702C0DE068
:102480005FEA045C02D50FF2682C07E05FEAC47CC7
:1024900002D00FF2602C01E0AFF2700C4FF0FF3869
:1024A00023F00043CDF850C065280CD006DC452849
:1024B00009D046281DD047283DD13DE0662818D0D8
:1024C00067287ED138E00021112F01DB112000E0C8
:1024D000781CCDE9000106A90EA8FFF7DDFCDDE9B7
:1024E0000F010E9A03910021009207F1010A049155
:1024F0004DE04FF000400097CDE9011006A90EA86D
:10250000FFF7CAFCDDE90F0203920E9B119900222E
:10251000DDF80CA00093049211B9791C00EB010ABC
:10252000B7EB0A0004D4C0F1FF3007F1010A0490B0
:10253000AAEB0700019044E0012F00DA01270021F7
:10254000112F01DD112000E03846CDE9000106A978
:102550000EA8FFF7A1FCDDE90F010E9A03910021FF
:1025600004910092BA4621070CD40399514500DA30
:102570008A46BAF1010F05DD009AAAF10101515C0A
:10258000302908D0B84202DA10F1040F06DA01212E
:10259000CDE9011015E0AAF10101E9E7002805DC09
:1025A000049901440491AAEB000102E0411C514549
:1025B00000DD8A460499401A401C01904FF000400B
:1025C0000290200704D40198504501DBCDF8048027
:1025D00000208DF84F0002980DF14F07B0F1004F29
:1025E00025D02B200E9002984FF0020800280CDA1C
:1025F000404202902D200E9007E00A210298FDF73C
:1026000079FE3031029007F8011DB8F10001A8F100
:102610000108F2DC02980028EFD1791E0E980870AC
:10262000307800F0200040F0450007F8020D12A8B5
:10263000C01B00F107081498007800B1012000EBDE
:102640000A01019801EBE07105984144401A401ECF
:102650000590E00306D45B462146179A059800F0E2
:102660005DF805441498007818B15A4617999047B8
:102670006D1CE00324D55B462146179A059800F0AF
:102680004DF805441CE00498002807DBDDE9030150
:10269000884203DD0098405C179901E017993020CB
:1026A0005A469047049805F10105401C0490019892
:1026B000401E019004D12E205A46179990476D1C58
:1026C000BAF10001AAF1010ADDDC05E017F8010BFF
:1026D0005A46179990476D1CB8F10001A8F10108FE
:1026E000F4DC5B462146179A0598ABE62D00000006
:1026F0002B000000200000002DE9F04104460025D9
:102700001E461746880404D405E039462020B04709
:102710006D1C641EF9D52846BDE8F0812DE9F04115
:10272000044600251E469046C80301D5302700E028
:102730002027880404D505E041463846B0476D1C83
:10274000641EF9D52846BDE8F081000013B5642366
:10275000012269460248FEF75FFF00981CBD000099
:102760008C000020FEF7BEFBFFF78CFAFFF74EFA55
:102770003C483B49002401603B49C0E901144FF447
:102780008041C0E9034144618461C4610462FEF791
:102790000FF93448354954304FF416550160C0E9FB
:1027A00001540C26C460C0E904468461C461FEF78C
:1027B000ABFE2C482E4994300160C0E90154C4603E
:1027C000C0E904468461C461FEF79EFEFFF754F938
:1027D0004FF47A70FDF7E8FF264D274C4FF4FA7658
:1027E000FFF790F9FFF7CEF902212846FEF7CEF861
:1027F00022A0FFF721FBA069FDF74DFD02460B4625
:1028000022A0FFF719FBE069FDF745FD02460B46E4
:1028100021A0FFF711FB206AFDF73DFD02460B46A4
:1028200020A0FFF709FBE068FDF735FD02460B46E7
:102830001FA0FFF701FB2069FDF72DFD02460B46A7
:102840001EA0FFF7F9FA6069FDF725FD02460B4669
:102850001DA0FFF7F1FA3046FDF7A6FFC0E7000024
:102860000054004038000020A086010000380140DC
:102870000044004000080140000000204D656173E5
:102880007572696E672E2E2E0A0000004778203D73
:102890002025660A000000004779203D2025660AB1
:1028A00000000000477A203D2025660A0000000055
:1028B0004178203D2025660A000000004179203D36
:1028C0002025660A00000000417A203D2025660A86
:1028D00000000000000000000000000001020304EE
:1028E0000607080900000000010203040C29000883
:1028F0000000002038000000781E0008442900086D
:1029000038000020D8040000881E000800000000E5
:1029100000000000000000000000000000000000B7
:1029200000000000000000000000000000000000A7
:102930000100000010000000000000000024F4006E
:042940000000000093
:04000005080000ED02
:00000001FF
