:020000040800F2
:10000000180E002001010008B7210008611C00083B
:10001000B5210008550800089525000800000000DB
:10002000000000000000000000000000B5220008F1
:100030007108000800000000B9210008B72200087C
:100040001B0100081B0100081B0100081B01000820
:100050001B0100081B0100081B0100081B01000810
:100060001B0100081B0100081B0100081B01000800
:100070001B0100081B0100081B0100081B010008F0
:1000800059080008650800081B0100081B0100084A
:100090001B0100081B0100081B0100081B010008D0
:1000A0001B0100081B0100081B0100081B010008C0
:1000B0001B0100081B010008000000001B010008D4
:1000C0001B01000800000000000000001B010008E8
:1000D000000000001B010008892500080000000046
:1000E0001B0100081B0100081B010008DFF80CD0F1
:1000F00000F09EFB00480047C52E0008180E0020A7
:100100000648804706480047FEE7FEE7FEE7FEE7B1
:10011000FEE7FEE7FEE7FEE7FEE7FEE7FD2200085A
:10012000ED000008202A04DB203A21FA02F0002129
:10013000704721FA02F3D040C2F1200291400843F7
:1001400019467047D2B201E000F8012B491EFBD2DC
:1001500070470022F6E710B513460A4604461946D2
:10016000FFF7F0FF204610BDF0B480EA0102D40F83
:100170004200B2EB410F02D20246084611464A0045
:1001800042D0C30DDDB2C1F3C752AD1A202D35DA0E
:10019000C1F3160141F4000204B15242C5F1200638
:1001A00002FA06F12A411044B3EBD05F23D0C4B168
:1001B000012DA0EBC35009DCF0BC4FF0004202EA75
:1001C000C352DBB200F5000000F076BA400000F147
:1001D000807000EBC350A0F1807040EAD1704900FC
:1001E00009E0490841EAC071A0EBC35000F50000E6
:1001F000400800EBC350F0BC00F055BA6142012248
:1002000002EB4101001BF6E7F0BC704781F00041B2
:10021000AAE780F00040A7E72DE9FE4F804681EA7B
:100220000300C00F0C46009021F0004123F0004570
:10023000B8EB0200A94105D24046214690461C4633
:100240000B46024623F00040104347D0270DC7F36A
:100250000A00C3F30A510290401A019040286BDA59
:10026000C3F3130040F4801B0098924620B1002392
:10027000D2EB030A63EB0B0B01985946C0F1400225
:10028000504600F0EFF906460D4650465946019A91
:1002900000F0F7F910EB08006141002487EA1152E1
:1002A00084EAE7731A4340D0009A62B3019A012AA4
:1002B0004FEA075215DC001B61EB02014FF00042D0
:1002C00002EA0752CDE90042001C41F58011324696
:1002D0002B4600F02EFA03B0BDE8F08F40462146D1
:1002E000F9E7001B61EB0201001C41F580130018C7
:1002F0005B412018A2F5001747EB030140EAD570D7
:10030000B6196D4111E06D084FEA360645EAC07531
:100310004FEA0752001B61EB0201001C41F58011FE
:1003200049084FEA30000019514132462B4603B0CC
:10033000BDE8F04F00F0EEB9009801224000002324
:10034000D0EB020263EBE073009821464FEAE074C1
:10035000B8EB000061EB0401E9E783F000435BE7E1
:1003600081F0004158E72DE9FE4F81EA030404F0D3
:10037000004421F0004100944FF0000B23F00043B3
:1003800050EA01045ED052EA03045BD0C3F30A547E
:10039000C1F30A552C44A4F2F3340194A0FB025497
:1003A000C1F3130141F48011C3F3130343F4801329
:1003B00001FB024400FB034E840A970A44EA81547D
:1003C00047EA8357A4FB076802958D0A05FB07855A
:1003D0004FEA932C04FB0C542705029D4FEA065864
:1003E00047EA1637B5EB08056EEB070C870E920E41
:1003F00047EA811742EA8312A7FB0201B6EB0B0121
:1004000064EB00042B0D43EA0C335E1844EB1C50E4
:10041000DA465146E7FB0201C5F313044FEA0B33FA
:1004200043EA14534FEA0432019C43EA0603A4F161
:100430000C040294009CCDE900B400F07AF903B0FA
:10044000BDE8F08F00200146F9E72DE9F04D81EA83
:10045000030404F0004B21F0004514464FF0000A5D
:1004600023F0004150EA050220D054EA01021DD0D9
:10047000C5F30A570246C5F31303C1F31300C1F3D2
:100480000A5640F4801543F48013A7EB0608101BAE
:10049000D64608F2FD3873EB050002D308F10108D7
:1004A00001E092185B41B8F1000F03DA0020014629
:1004B000BDE8F08D00204FF48011064684460EE022
:1004C000171B73EB050705D3121B63EB05030643EC
:1004D0004CEA010C49084FEA300092185B4150EA9F
:1004E0000107EDD152EA030012D082EA040083EA48
:1004F0000501084305D0101BAB4106D201220023A1
:1005000006E000224FF0004302E06FF001025310BA
:100510001AEB06004CEB085110EB0A0041EB0B0103
:10052000BDE8F04D00F0F6B870B521F0004303438C
:100530000CD0C1F30A550024D5EB040564EB040389
:10054000D617AD1AB34102DB0020014670BD20185A
:1005500041EB025170BD0EB5C10F80EAE070084456
:10056000CA07002140F233438DE80E000A460B46CD
:1005700000F0DFF803B000BD00F0004230F00040B2
:100580000AD0C10D01F56071C0F3160042EA0151B5
:10059000C20840071143704700200146704701F030
:1005A000004330B421F0004150EA010206D00A0DA8
:1005B000A2F56072C1F31301002A02DC30BC0020F6
:1005C0007047440F44EAC104C100E01830BC00EB9E
:1005D000C25000F068B830B50B460146002020221A
:1005E000012409E021FA02F59D4205D303FA02F540
:1005F000491B04FA02F52844151EA2F10102F1DCA0
:1006000030BD2DE9F05F0546002092469B468846A6
:100610000646814640241BE028464146474622467E
:10062000FFF780FD53465A46C01A914110D3114638
:100630001846224600F016F82D1A67EB01084F46BF
:1006400022460120002100F00DF817EB00094E4171
:10065000201EA4F10104DFDC484631462A46434609
:10066000BDE8F09F202A04DB203A00FA02F10020C6
:1006700070479140C2F1200320FA03F319439040E0
:100680007047202A06DBCB17203A41FA02F043EAF2
:10069000E07306E041FA02F3D040C2F1200291403B
:1006A0000843194670470029A8BF7047401C4900FD
:1006B00008BF20F00100704710B4B0FA80FC00FAC7
:1006C0000CF050EA010404BF10BC704749B1CCF1F2
:1006D000200421FA04F411FA0CF118BF012121437E
:1006E0000843A3EB0C01CB1D4FEA00614FEA102039
:1006F00042BF002010BC704700EBC35010440029DB
:10070000A4BF10BC7047401C490008BF20F0010086
:1007100010BC704710B5141E73F1000408DA401CB9
:1007200041F1000192185B411A4301D120F0010010
:1007300010BD2DE9F04D92469B4611B1B1FA81F200
:1007400002E0B0FA80F220329046FFF78BFF0446B9
:100750000F4640EA0A0041EA0B0153465A46084355
:1007600013D0114653EA010019D0C8F14002504697
:10077000FFF7D8FC05460E46504659464246FFF75D
:1007800071FF084305D0012004E020463946BDE84A
:10079000F08D0020054346EAE0762C4337430A9863
:1007A0006305E40AA0EB08000022FD0A44EA47546E
:1007B0000A3002D500200146E9E701051019694118
:1007C000DDE9084500196941BDE8F04DA2E7C1F334
:1007D0000A52C1F3130140F2FF3341F480119A42EF
:1007E00002DA00200146704740F233439A42A2F2F7
:1007F000334202DC5242FFF795BCFFF733BF0000E3
:1008000030B5041E71F1000404DB4FF00044404297
:1008100064EB0101141E73F1000405DB1C464FF06C
:100820000043524263EB0403994208BF904230BD3B
:10083000064C074D06E0E06840F0010394E807002D
:1008400098471034AC42F6D3FFF754FCB03300089D
:10085000D0330008FEE70000014800F057B8000060
:1008600090090020014800F051B80000D409002090
:100870007047704710B590F821100024022903D06A
:100880000421816301243DE001680A6822F00E0220
:100890000A6001680A6822F001020A601A4A0168C7
:1008A000914201D1012121E0174A1432914201D134
:1008B00010211BE0144A2832914201D1891515E01C
:1008C000114A3C32914201D189140FE00E4A503254
:1008D000914202D14FF4803108E00B4A64329142D8
:1008E00002D14FF4801101E04FF08071064A083ABE
:1008F0005160012180F82110002180F82010416B07
:1009000001B18847204610BD080002402DE9F05F84
:10091000C16B0C6801680B68D0F840C0042202FA71
:100920000CF2494DDFF824A1494E4A4FDFF828B1B7
:10093000DFF828E122422CD05A072AD50A6892060D
:1009400003D40A6822F004020A600168A94201D1B6
:10095000042219E0514501D1402215E0B14202D1F3
:100960004FF4806210E0B94202D14FF480420BE0B4
:10097000594502D14FF4802206E0714502D14FF46F
:10098000800201E04FF080622F4908394A60C16A55
:100990003BE04FF0020808FA0CF818EA040F4FF099
:1009A00000094FF0010235D05FEA837832D50B6839
:1009B0009B0605D40B6823F00A030B6080F8212006
:1009C0000168A94201D1022219E0514501D120223A
:1009D00015E0B14202D14FF4007210E0B94202D1E9
:1009E0004FF400520BE0594502D14FF4003206E0BB
:1009F000714502D14FF4001201E04FF0007212492C
:100A000008394A6080F82090816A00291AD0BDE830
:100A1000F05F0847082505FA0CF5254212D01B07A0
:100A200010D50B6823F00E030B6090F84010C36BD9
:100A300002FA01F15960826380F8212080F8209049
:100A4000016BE2E7BDE8F09F080002401C00024095
:100A50003000024044000240580002406C00024056
:100A600030B528B308C8134914221944B1FBF2F178
:100A70008900C16310498163022141771A6843F6F6
:100A8000F0718A43D0E900142143D0E902452C4398
:100A9000214304692143446921438469214311436B
:100AA000196000214163012242770177084630BD79
:100AB000012030BDF8FFFDBF0000024070B50446C4
:100AC00000F0FAF80546601C02D00448007804449F
:100AD00000F0F2F8401BA042FAD370BDA80000203D
:100AE0002DE9F84FDFF89C91002409F1040A0AF17E
:100AF000040B23460F270BF1040EBBE00125A54094
:100B00002A40AA4276D1DFF880C14E68A6EB0C08D5
:100B100066452BD00DDC032E34D005DC36B3012E18
:100B200019D0022E2FD11BE0112E16D0122E2AD151
:100B300019E0B8F5881F19D006DCB8F5803F15D04C
:100B4000B8F5801F1FD111E0B8F5001F0ED0B8F521
:100B5000041F18D10AE0CB6815E0CB681B1D12E01A
:100B6000CB6808330FE0CB680C330CE08B682BB1FB
:100B7000012B4FF0080303D0456104E0042302E099
:100B8000056100E00023FF2A01D8064601E000F1DC
:100B900004064FEA840501D9A5F12005D6F80080A6
:100BA00007FA05FC28EA0C0803FA05F548EA0508E7
:100BB000C6F800804D68ED005BD5344DAE6946F057
:100BC0000106AE61AD6924F0030605F0010500954C
:100BD0002F4D06EB050CDCF80850A607360F07FA78
:100BE00006F825EA0805DFF8AC80404503D14FF050
:100BF000000810E03DE0DFF8A080404502D14FF052
:100C0000010808E0DFF89480404502D14FF0020867
:100C100001E04FF0030808FA06F848EA0508CCF8A6
:100C200008804D68D9F80060ED034D4601D51643A4
:100C300000E096432E604D68DAF80060AD0355463B
:100C400001D5164300E096432E604D68DBF8006046
:100C5000ED025D4601D5164300E096432E604D68D7
:100C6000DEF80060AD02754601D5164300E09643FC
:100C70002E60641C0A6832FA04F57FF43FAFBDE8C9
:100C8000F88F000000040140000011100010024025
:100C90000000014000080140000C0140001001402C
:100CA000C2680A4201D041617047016170470AB1D0
:100CB000016170470904FBE7014880687047000044
:100CC000A800002070B504001BD094F83D0000255A
:100CD00020B984F83C50204600F056FA242084F8CD
:100CE0003D002068016821F00101016000F0AAFBCD
:100CF0004D4A6168914201D84C4900E04C49884214
:100D000001D2012070BD4B492368B0FBF1F15E6850
:100D100026F03F060E435E606368934206D94FF4A7
:100D2000967359434FF47A73B1FBF3F12368491C6E
:100D30001E6A26F03F06314319626168914210D85D
:100D40004900401EB0FBF1F2521CC2F30B02042A10
:100D500001D2042022E0B0FBF1F0401CC0F30B00F4
:100D60001CE0A368F3B301EBC10202EB0116421EC3
:100D7000B2FBF6F2521C42F48042120549D093B302
:100D800001EBC10202EB0111401EB0FBF1F0401C6F
:100D9000C0F30B0040F4804040F400402168CA6971
:100DA0004CF6FF739A431043C861D4E90701084326
:100DB00021680A6822F0C00210430860D4E90301E8
:100DC00001432068826848F2FF339A4311438160EF
:100DD000D4E9050108432168CA6822F0FF021043E4
:100DE000C86001E00EE016E02068016841F00101F2
:100DF00001602564202084F83D00256384F83E507E
:100E0000002070BD01EB4106421EB2FBF6F2521CFF
:100E1000B3E70120C2E701EB4101401EB0FBF1F056
:100E2000401CC0F30B00B7E7A086010080841E00C1
:100E300000093D0040420F002DE9FF4F83B09A4664
:100E4000DDE9119793460446DDF84080FFF734FF53
:100E5000054694F83D0020286FD1192301227B49D3
:100E60002046009500F0F8FF0028F5D194F83C00EA
:100E7000012862D0012084F83C0020680168C9077D
:100E800003D1016841F0010101602168086820F484
:100E900000600860222084F83D00402084F83E0075
:100EA00000262664C4F82480A4F82A90608D20854A
:100EB0006748E062CDE9007553465A4620460499DA
:100EC00000F0E6FE00287DD1208DDFF8888168B132
:100ED000012814D0022820D02068016841F48061E4
:100EE00001602068416980690090A0E02068416944
:100EF00081690091016841F40071016097E0206808
:100F0000016821F48061016072B6206841698169DD
:100F10000091016841F400710CE02168086840F418
:100F20000060086072B620684169816900910168BB
:100F300021F48061016062B679E084E003284FD833
:100F400001280BD002283B464FF0000241462046C4
:100F500000950ED000F080FFA0BB0FE02A46394676
:100F6000204600F0F8FF68BB20680069616A0870DD
:100F700054E000F071FF28BB72B61AE020680168E7
:100F800021F48061016072B620680069616A0870AE
:100F9000606A401C6062208D401E2085608D401E6E
:100FA00060853B46002241462046009500F054FFF4
:100FB00040B92068016841F400710160206800694F
:100FC000616A00E012E00870606A401C6062218D76
:100FD000491E2185618D491E618562B621681BE02D
:100FE0002A463946204600F0B6FF18B1012007B066
:100FF000BDE8F08F20680069616A0870606A401C73
:101000006062218D491E2185618D491E618521689F
:101010004A69D24352070AD409690170606A401CC8
:101020006062208D401E2085608D401E6085208D71
:10103000002883D1202084F83D0084F83E6084F8A5
:101040003C600020D3E70220D1E70000020010003E
:101050000000FFFF040001002DE9FF4F83B09A4616
:10106000DDE9119793460446DDF84080FFF724FE42
:10107000054694F83D0020287FD1192301224049DC
:101080002046009500F0E8FE002876D194F83C0058
:10109000012872D0012084F83C0020680168C9074B
:1010A00003D1016841F0010101602068016821F469
:1010B00000610160212084F83D00402084F83E005A
:1010C00000262664C4F82480A4F82A90608D208528
:1010D0002C48E062CDE9007553465A4620460499F3
:1010E00000F04AFE70B930E02A463946204600F04A
:1010F00065FF58B1206C042804D12068016841F4D0
:1011000000710160012007B0BDE8F08F606A2168BE
:1011100000780861606A401C6062218D491E89B2B6
:101120002185628D521E628522685369DB435B070D
:101130000BD469B100781061606A401C6062208D38
:10114000401E2085608D401E6085208D0028CBD1FB
:101150002A463946204600F059FE0028CAD154F8E4
:101160003D0B016841F400710160202004F81E0964
:10117000E67766770020C6E7FFE70220C3E70000B6
:10118000020010000000FFFF10B586B000210091A2
:101190000191029103910068104988421CD1104CC2
:1011A000A06940F00800A061A069694600F008004D
:1011B0000490C02000901220019001200290032092
:1011C00003900848FFF78CFCE06940F40010E061F0
:1011D000E06900F40010049006B010BD0054004017
:1011E00000100240000C014002488168027811445E
:1011F00081607047A8000020074810B5016841F0E1
:1012000010010160032000F075F8002000F006F8DE
:1012100000F024F8002010BD0020024070B50D4DF4
:1012200004464FF47A712878B1FBF0F00A49096856
:10123000B1FBF0F000F0ECFA48B9102C07D2002214
:101240002146501E00F036F800206C6070BD012071
:1012500070BD0000A8000020B40000200C4808B5B4
:10126000816941F001018161816901F00101009111
:10127000C16941F08051C161C06900F080500090A7
:101280000448416821F0E06141F00071416008BD0F
:101290000010024000000140002809DB00F01F029E
:1012A000012191404009800000F1E020C0F80011C8
:1012B00070470000F0B40E4B1B680C46C3F30223CA
:1012C000C3F10705042D00D90425191D072901D2F2
:1012D000002300E0DB1E012606FA05F1491E21402D
:1012E00099409E40761E16403143F0BC01F064B92F
:1012F0000CED00E0064900F0070208684FF6FF0316
:10130000184040EA0220034A10430860704700007A
:101310000CED00E00000FA052DE9F0470F4605004E
:1013200061D0434E306800F00700B84209D23068FF
:1013300020F0070038433060306800F00700B84202
:1013400051D128683B4C810712D5400703D560680E
:1013500040F4E06060602878000703D5606840F4DE
:10136000605060606068A96820F0F0000843606029
:101370002878C00728D06868012810D02168022882
:1013800010D0890700292EDA616821F0030101439A
:101390006160FFF791FC804641F288390DE02168D9
:1013A0008903EFE78901EDE7FFF786FCA0EB080171
:1013B000494502D90320BDE8F0876068696800F0FC
:1013C0000C00B0EB810FEFD1306800F00700B8429D
:1013D0000BD9306820F0070038433060306800F0E7
:1013E0000700B84201D00120E5E72878400705D57D
:1013F0006068E96820F4E0600843606028780007CE
:1014000006D56068296920F4605040EAC100606038
:1014100000F038F86168084AC1F30311515CC84014
:101420000649086006480068FFF7F8FE0020C2E79A
:10143000002002400010024098330008B400002051
:10144000AC0000200448054900684968044AC1F31B
:101450000221515CC8407047B400002000100240D7
:10146000A83300080448054900684968044AC1F3E4
:10147000C221515CC8407047B400002000100240F7
:10148000A833000812A185B00FC98DE80F0014A081
:10149000144A006804905168134801F00C03042BAF
:1014A00010D0082B0ED1C1F38343C9031DF80300EC
:1014B0000AD5516804AAC1F34041515C0A4A50431D
:1014C000B0FBF1F005B0704708494843FAE7000067
:1014D00002030405060708090A0B0C0D0E0F101075
:1014E000010200000010024000127A0000093D00D5
:1014F0002DE9F84F040070D02078C04DC00749D0C6
:101500006868C0F38100012807D06868C0F38100D3
:10151000022809D16868C00306D52868800339D538
:1015200060680028E7D035E06068B0F5803F0BD0F8
:1015300010B1B0F5A02F11D0286820F480302860B9
:10154000286820F4802002E0286840F48030286079
:10155000606890B1FFF7B0FB06460AE0286840F4E7
:1015600080202860F0E700BFFFF7A6FB801B6428FF
:1015700073D828688003F7D50CE0FFF79DFB06467B
:1015800005E000BFFFF798FB801B6428F0D82868AF
:101590008003F7D420789A4E80074FF001094FF06E
:1015A000000839D5686810F00C0F07D06868C0F3E0
:1015B0008100022809D16868C00306D42868800722
:1015C00014D52069012808D110E02069B0B1C6F80F
:1015D0000090FFF771FB074605E00AE1FFF76CFB9F
:1015E000C01B0228C4D828688007F7D5286861691D
:1015F00020F0F80040EAC10028600DE0C6F8008045
:10160000FFF75AFB074604E0FFF756FBC01B022812
:1016100023D828688007F7D4207800072CD579488C
:10162000A169D9B1C0F80090FFF746FB074604E076
:10163000FFF742FBC01B02280FD8686A8007F7D566
:1016400071484FF4FA510068B0FBF1F0009000BF10
:101650000098411E0091FAD20EE080E0C0F80080B0
:10166000FFF72AFB074604E0FFF726FBC01B022812
:1016700075D8686A8007F7D42078400760D5E86994
:101680000027C00008D4E86940F08050E861E869AC
:10169000012700F0805000905C480168C90513D410
:1016A0000168834641F480710160FFF705FB8246C3
:1016B00006E000BFFFF700FBA0EB0A0064284ED84D
:1016C000DBF80000C005F5D5E06801280AD008B1B4
:1016D000052813D0286A20F001002862286A20F02B
:1016E000040002E0286A40F001002862E06841F24C
:1016F000883B98B1FFF7E0FA82460BE0286A40F099
:1017000004002862EEE700BFFFF7D6FAA0EB0A015B
:1017100059455AD8286A8007F6D50CE0FFF7CCFA6D
:10172000824605E0FFF7C8FAA0EB0A0159454CD8FC
:10173000286A8007F6D41FB1E86920F08050E8617C
:10174000E06988B36968C1F38101022944D00228A5
:10175000C6F8608004D0FFF7AFFA044638E034E002
:10176000FFF7AAFA074604E0FFF7A6FAC01B022813
:101770002BD828688001F7D4206AB0F5803F05D1C6
:101780006868A16820F4003008436860D4E9080163
:101790000843696821F4741108436860C6F86090D2
:1017A000FFF78AFA044606E025E000BFFFF784FA57
:1017B000001B022809D828688001F7D51BE000BF6C
:1017C000FFF77AFA001B022802D90320BDE8F88F40
:1017D00028688001F4D40EE00128F7D06868226AF6
:1017E00000F48031914204D1616A00F470108842A3
:1017F00001D00120EAE70020E8E7000000100240E5
:101800000000424280044242B400002000700040C8
:1018100010B5401EB0F1807F01D3012010BD4FF004
:10182000E02460610F21601700F0C6FE0020A06177
:1018300007202061002010BD7047000070B50268CD
:1018400004461068D168536910F00F0F50D003F0B0
:10185000010501F4907635435DD0C20705D0CA0575
:1018600003D5E26B42F00102E263420705D5DA07D5
:1018700003D0E26B42F00202E263820705D5DA0789
:1018800003D0E26B42F00402E263020705D5DA07F7
:1018900003D0E26B42F00802E263E26B002A33D02D
:1018A000800604D5880602D5204600F061FD206838
:1018B0004069E16BC0F38010090700D428B32046CB
:1018C00000F048FD2068416949061AD5416921F0B8
:1018D00040014161606BA0B11B494163606BFEF741
:1018E000C9FF002810D0606B416BBDE8704008470D
:1018F000830610D58B060ED52046BDE8704000F05B
:1019000037BD2046FFF798FF70BD2046FFF794FFD4
:101910000020E06370BD030606D50B0604D5204603
:10192000BDE8704000F0CCBD4006F3D54806F1D5C7
:10193000D168204621F04001D160202184F839107F
:1019400000F08DF970BD00004523000870B504005B
:1019500004D094F83900002510B106E0012070BDD4
:1019600084F83850204600F023F8242084F8390009
:101970002068C16821F40051C160204600F044FD98
:101980002068016921F4904101612068416921F0DA
:101990002A0141612068C16841F40051C160E563DA
:1019A000202084F8390084F83A00002070BD00003F
:1019B000F0B585B000240646009401940294039487
:1019C00000682C49884252D12B48C16941F400314A
:1019D000C161C16901F400310491816941F00401E0
:1019E00081618069254D00F004000490042000907E
:1019F000022001900320039069462846FFF770F803
:101A00000820CDE900040120029069462846FFF72E
:101A100067F81C4D1A488027C5E90004C5E902474C
:101A20002C616C61AC612846EC61FFF719F808B1D4
:101A3000FEF71FFF75636E621148134D143001C528
:101A4000102091C5104845F810496C61AC61EC61FB
:101A5000FFF706F808B1FEF70CFF356300221146C8
:101A600026206E62FFF726FC2620FFF715FC05B046
:101A7000F0BD00000044004000100240000801409A
:101A80006C00024090090020D409002090F83A3000
:101A9000202B22D1F9B1F2B190F83830012B1CD0B3
:101AA00081628285C2850021C163222280F83A20AA
:101AB00080F838100168CA6842F48072CA60016810
:101AC0004A6942F001024A610068C16841F02001A0
:101AD000C16000207047012070470220704700005D
:101AE00070B500682549884247D1254C0125A4F1ED
:101AF000A00620784D2803D122A0B56100F04CFD4E
:101B00002078412803D120A0F56100F045FD207820
:101B1000442803D11DA0356200F03EFD20785328F3
:101B200003D11BA0756200F037FD2078542805D141
:101B300000207062B06217A000F02EFD20783128DE
:101B400004D16420F06214A000F026FD2078322831
:101B500005D14FF47A70F0620FA000F01DFD2078DF
:101B6000432803D10DA0B56200F016FDBDE870401A
:101B7000012203490A48FFF789BF70BD00440040B5
:101B8000A00000204D0A0000410A0000440A0000A5
:101B9000530A0000540A0000310A0000430A000002
:101BA000100100202DE9F843044690F839001F4643
:101BB00016460D46202850D1A5B19EB194F83800A4
:101BC00001284AD0012084F838004FF00008C4F8FA
:101BD0003C80212084F83900FFF76EF8A684814606
:101BE000E68426E00120BDE8F883E08C401EE08416
:101BF000A0684B46B0F5805F4FF000024FF08001C7
:101C00002046009703D000F08CFCE8B90DE000F00E
:101C100088FCC8B928882168C0F30800486020699A
:101C200008B16D1C05E0AD1C03E0216815F8010B3F
:101C30004860E08C0028D8D14B4600224021204645
:101C4000009700F06EFC08B10320CCE7202084F858
:101C5000390084F838800020C5E70220C3E77047C8
:101C6000FEE701684A69D24352050FD46FF48062DF
:101C70004A61002140F8301F2022427381730269BB
:101C800042F0040202610173012070470020704796
:101C90002DE9F84F0446006889460B9D0168984677
:101CA000174641F4806101602068016841F4807149
:101CB000016000954FF0011A0022514620460A9B10
:101CC00000F0CAF8002853D1216809F0FE0008612D
:101CD0000AF1010B2B46594620460A9A00F0F0F80B
:101CE000F0BB20684169806900902A4620460A9925
:101CF00000F064F940B1206C042839D120680168F3
:101D000041F40071016033E0FEB2B8F1010F09D077
:101D10002168380A08612A4620460A9900F04EF9DF
:101D20000028E8D1206806612A4620460A9900F07A
:101D300045F90028DFD12068016841F48071016015
:101D400000950022514620460A9B00F085F838B9DC
:101D5000216809F0FF0040F0010008612B4600E017
:101D600006E0594620460A9A00F0AAF8002800D05A
:101D70000120BDE8F88F00002DE9F8430446006813
:101D80000D46DDE9089701689846164641F48071D2
:101D900001604B4600224FF001112046009700F0F1
:101DA0005BF8E0B9216805F0FE0008613B464A4651
:101DB0001549204600F084F888B920684169806997
:101DC00000903A464946204600F0F8F850B1206CA1
:101DD000042804D12068016841F4007101600120E9
:101DE000BDE8F883F5B2B8F1010F09D02168300AD7
:101DF00008613A464946204600F0E0F80028E6D15E
:101E0000206805610020EBE70200010070B516466E
:101E10000D4604460DE02046FFF723FF08B10120E0
:101E200070BD681C05D0FEF747FF801BA84207D88D
:101E300035B120684069C0434007ECD4002070BD34
:101E4000002044F8300F20216173A073216941F014
:101E5000200121612073E2E72DE9F0471E469046FC
:101E60000D460446C1F30747DDF8209008E0701CDA
:101E700006D0FEF721FFA0EB0900B0420FD876B1E3
:101E80002068012F18D0806925EA00000004000CAA
:101E900014D000214145EAD00020BDE8F0870020A1
:101EA00044F8300F20216173A073216941F02001B3
:101EB000216120730120F0E74069E5E70121E9E7AE
:101EC0002DE9F0479A4691460E46044600254FF00C
:101ED0002008C1F3074725E020684069C04340055A
:101EE00014D42068016841F40071016021686FF426
:101EF00080604861256384F83D8084F83E50206C02
:101F000040F00400206484F83C501FE0B9F1FF3F2A
:101F100008D0FEF7D1FEA0EB0A0149450CD8B9F173
:101F2000000F09D02068012F13D0806926EA000035
:101F30000004000C0BD0CFE744F8305F84F80D802C
:101F4000A573206940F02000206125730120BDE8C1
:101F5000F0874069EAE72DE9F041002590460E46FA
:101F60000446202717E04069C043C0060CD454F84B
:101F7000301B6FF01000486144F810596777A5775F
:101F8000206A2062257717E0FEF796FEA0EB080096
:101F9000B04208D83EB120684169C9434906E2D43D
:101FA0000020BDE8F08144F8305F6773A5732069B5
:101FB00040F02000206125730120F2E770B516463D
:101FC0000D4604460DE02046FFF74BFE08B1012008
:101FD00070BD681C05D0FEF76FFE801BA84207D8B5
:101FE00035B120684069C0430006ECD4002070BDC4
:101FF000002044F8300F20216173A073216941F063
:10200000200121612073E2E7F0B585B0012504A825
:10201000CDE900054FF47A742B467522D021029445
:102020002148FEF709FF9DF81000682839D10027E4
:1020300003AE8DF80C700096CDE9015401236B229C
:10204000D0211948FFF708F88DF80C700096CDE9FB
:10205000015401231922D0211348FEF7FDFF072068
:102060008DF80C000096CDE9015401231A22D021ED
:102070000D48FEF7F1FF8DF80C700096CDE9015484
:1020800001231C22D0210848FEF7E6FF8DF80C70D2
:102090000096CDE9015401231B22D0210248FEF70E
:1020A000DBFF05B0F0BD0000BC000020F0B585B03E
:1020B0004FF47A72062103A88DE8070001233B2222
:1020C000D0211848FEF7B8FEBDF80C00164C40BAF7
:1020D00000B2E080BDF80E1049BA0EB22681BDF8FC
:1020E000101049BA0DB26581FEF735FA6FF00D0791
:1020F0003A46FEF719FAFEF752FA60653046FEF7E7
:102100002AFA3A46FEF710FAFEF749FAA065284681
:10211000FEF721FA3A46FEF707FAFEF740FAE065C5
:1021200005B0F0BDBC00002000000020F0B585B077
:102130004FF47A72062103A88DE807000123432299
:10214000D0211948FEF778FEBDF80C00174C40BAB4
:1021500000B2A081BDF80E1049BA0EB2E681BDF8FA
:10216000101049BA0DB22582FEF7F5F9104F002282
:102170003B46FEF76AF9FEF712FA20663046FEF794
:10218000EAF900223B46FEF760F9FEF708FA6066BE
:102190002846FEF7E0F900223B46FEF756F9FEF727
:1021A000FEF9A06605B0F0BDBC00002000000020D4
:1021B00000606040FEE77047704700007FB5012473
:1021C00003AD1D20CDE900548DF80C004FF47A7654
:1021D000234609221A210E480296FEF73DFF0020F1
:1021E000CDE900548DF80C0001230A221A21084879
:1021F0000296FEF731FFCDE900548DF80C40012323
:102200000B221A2102480296FEF726FF7FBD00002E
:10221000BC000020F0B585B0062503AE4FF47A74FB
:102220000096CDE9015401232A461A211E48FEF7E3
:1022300003FE9DF80C0010F001008DF80C0031D069
:102240000096CDE90154012300221A211648FEF719
:10225000F3FD164CBDF90C606682BDF90E00A0823C
:10226000BDF91050E5824042FEF775F9104F00228B
:102270003B46FEF7EAF8FEF792F9E0663046FEF7D5
:102280006AF900223B46FEF7E0F8FEF788F920677E
:102290002846FEF760F900223B46FEF7D6F8FEF727
:1022A0007EF9606705B0F0BDBC0000200000002092
:1022B0000070A7407047FEF797BF10B590B0282177
:1022C0006846FDF746FF14210AA8FDF742FF0220E9
:1022D0000090012004901020002405900794684687
:1022E000FFF706F90F20CDE90A040C940D940021A4
:1022F0000AA80E94FFF710F810B010BD0D48016841
:1023000041F00101016041680B4A114041600168E0
:102310000A4A11400160016821F48021016041688E
:1023200021F4FE0141604FF41F0181600449C003A4
:1023300008607047001002400000FFF8FFFFF6FE43
:1023400008ED00E010B5406A0021C185C184FFF7A7
:1023500073FA10BD0168CA6822F49072CA600168FD
:102360004A6922F001024A61202180F83A10704740
:1023700010B590F83A10222901D0022010BD8168D2
:10238000B1F5805F11D00169002901681FD049684B
:1023900001F07F03816A4A1C82620B70C18D491E65
:1023A0000904090CC18518D02BE00269816A002A52
:1023B0000268526805D0D2B20A80816A491C8162E3
:1023C000ECE7C2F308020A80816A891CF7E74A68D1
:1023D000816A4B1C83620A70E0E70168CA6822F0D8
:1023E0002002CA600168CA6822F48072CA6001686B
:1023F0004A6922F001024A61202180F83A10FFF771
:102400006FFB002010BD00002DE9F041044600687C
:102410000169E26821F44051114301612169A0681A
:102420000843616908432168CA6841F20C639A4312
:102430000243CA6020684169A26921F440711143D6
:1024400041611E49206864253226884202D1FFF787
:1024500009F801E0FEF7F6FF00EBC00101EB001107
:1024600060686FF018078000B1FBF0F2B2FBF5F284
:10247000B1FBF0F37A4303EB8202B1FBF0F306EB1E
:102480000212B2FBF5F2B3FBF5F302F0F00202EB3D
:102490000312B1FBF0F3B1FBF0F0B0FBF5F07843C1
:1024A00003EB800006EB0010B0FBF5F0216800F0B4
:1024B0000F0010448860BDE8F08100000038014042
:1024C00090F83910212901D0022070478168B1F5B8
:1024D000805F016A0BD04A1C026202680978516071
:1024E000C18C491E0904090CC1840ED017E009886B
:1024F0000268C1F30801516001690029016A02D034
:10250000491C0162ECE7891CFBE70168CA6822F0FC
:102510008002CA600068C16841F04001C1600020CB
:1025200070472DE9F041984617460E460446069D31
:102530001DE0681C1BD02DB1FEF7BEFBA0EB080010
:10254000A84214D92068C16821F4D071C160206804
:10255000416921F001014161202084F8390084F8AB
:102560003A00002084F838000320BDE8F08120689C
:10257000006836EA000004D00020B842D9D000201C
:10258000F3E70120F9E700000148FFF757B9000021
:1025900010010020FEE700000FB4054B10B503A9A1
:1025A000044A029800F0EAF810BC5DF814FB000041
:1025B000AD2E0008B80000200907090E002804DB32
:1025C00000F1E02080F80014704700F00F0000F1E7
:1025D000E02080F8141D704702E008C8121F08C1EF
:1025E000002AFAD170477047002001E001C1121F94
:1025F000002AFBD1704700002DE9FF5F82B0002167
:10260000DDE90430020DDDF840B0034318D044F694
:102610001050A2F2FF3242431514119801281FD026
:10262000A5EB0B00401C5FEA000A4FF000064E4F7E
:10263000DFF83891B046504615D5CAF1000413E0D2
:10264000119801244AA3012801D16FEA0B010298D5
:10265000119AC0E90031C0E9024206B0BDE8F09F1E
:10266000CBF10000DFE704460021404A491842EB65
:102670000450CDE9001012E0E00707D032463B4697
:1026800040464946FDF76FFE8046894632463B4646
:1026900010461946FDF767FE06460F466410002CEB
:1026A000EAD1DDE90401DDE90023BAF1000F06DA21
:1026B000FDF759FE42464B46FDF755FE05E0FDF796
:1026C000C4FE42464B46FDF7C0FE04460E460022BD
:1026D000284BFEF795F803D84FF0FF30014607E08E
:1026E0000022254B20463146FDF796FDFEF76FF898
:1026F000102409E0002C0ADB0A220023FDF781FFE9
:10270000039B30321A55641E50EA0102F2D1641C58
:10271000039AC4F111031444119A012A03D001222F
:1027200008430DD10AE0084304D000204FF0110BFC
:10273000119072E7A3EB0B056D1E0DE05B4504DD08
:102740004FF0000205F1010504E003DA4FF000024A
:10275000A5F10105002AECD002981199C0E90231D7
:10276000C0E9004579E70000000014400000F03F98
:10277000300000000000F0430000E03F2DE9FF4F73
:1027800095B09B468946064600250FE2252877D15D
:1027900000242746F84A0121059400E0044316F876
:1027A000013F203B01FA03F01042F7D130782A288C
:1027B00011D06FF02F033078A0F13002092A16D81B
:1027C000059A44F0020402EB820203EB4202104439
:1027D000761C0590EFE759F8042B0592002A03DADE
:1027E000504244F40054059044F00204761C3078C2
:1027F0002E2816D116F8010F44F004042A280DD013
:102800006FF02F023078A0F13003092B09D807EBC5
:10281000870302EB4303C718761CF3E759F8047BE0
:10282000761C30786C280FD006DC4C2817D068282E
:102830000DD06A2814D104E0742810D07A280FD162
:102840000DE044F400140AE044F4801401E044F480
:1028500040147278824202D104F58014761C761CF2
:10286000307866280BD013DC582877D009DC002894
:1028700075D04528F6D04628F4D047281AD19DE1D6
:1028800018E0632835D0642879D0652812D195E105
:10289000702873D008DC6728F1D069286FD06E28C3
:1028A0000DD06F2806D1B5E073282CD0752875D0CF
:1028B000782874D05A46179990476D1C75E1C4F377
:1028C0000250022809D003280DD0D9F8001004289E
:1028D0000DD00D6009F1040967E1D9F80010EA177D
:1028E000C1E90052F6E7D9F800100D80F2E70D704B
:1028F000F0E719F8041B8DF8001000208DF8010096
:10290000EA46012003E059F804AB4FF0FF306107BD
:102910004FF0000102D40DE008F101018846B942F0
:102920000FDA8045F8DB1AF808100029F4D108E026
:1029300008F1010188468142FADB1AF808100029E3
:10294000F6D105985B46A0EB080721463846179A52
:1029500000F094FA284400EB080507E04DE029E177
:102960000DE01AF8010B5A4617999047B8F1010883
:10297000F7D25B4621463846179A13E142E00A2215
:102980000092C4F302524FF0000A022A08D059F80C
:1029900004CB032A4FEAEC710AD00DE029E02AE0CB
:1029A00009F1070121F00702F2E802C1914609E0AE
:1029B0000FFA8CFC4FEAEC71042A03D14FFA8CFC1D
:1029C0004FEAEC71002907DA0A460021DCF1000C1D
:1029D00061EB02012D2202E0220504D52B228DF8A5
:1029E0000420012203E0E20701D02022F7E790460D
:1029F00059E00A2102E010220DE010214FF0000AF8
:102A000000910BE010224FF0000A44F00404082764
:102A1000009203E008224FF0000A0092C4F3025231
:102A2000022A05D059F804CB0021032A08D009E076
:102A300009F1070121F00702F2E802C1914605E021
:102A40001FFA8CFC042A01D10CF0FF0C4FF0000897
:102A5000220728D5702806D0009B83F0100353EA84
:102A60000A0305D00EE040228DF80420012208E080
:102A70005CEA010206D030228DF804208DF80500B2
:102A800002229046009B83F0080353EA0A030AD10E
:102A90005CEA010201D1620705D530228DF80420DD
:102AA0004FF001087F1E582804D034A003900EA8D0
:102AB00002900DE036A0F9E753466046009AFDF714
:102AC000A0FD84460398825C0298401E029002702A
:102AD0005CEA0100F0D1029806A9081A00F1200A68
:102AE000600702D524F4803400E00127574502DD59
:102AF000A7EB0A0000E0002000EB0A010090059817
:102B00004144401A0590E00306D45B462146179ADB
:102B1000059800F0B3F90544002706E001A85A46DD
:102B2000C05D179990476D1C7F1C4745F6DBE0039D
:102B30000CD55B462146179A059800F09FF905448D
:102B400004E030205A46179990476D1C0099481EA2
:102B500000900029F5DC08E0029802995A460078B6
:102B6000491C0291179990476D1CBAF10001AAF116
:102B7000010AF1DC65E1000009280100303132333F
:102B800034353637383961626364656600000000A9
:102B90003031323334353637383941424344454693
:102BA0000000000000F058F90544761C3078002839
:102BB0007FF4ECAD19B02846BDE8F08F620700D471
:102BC000062709F1070222F0070CFCE80223E14680
:102BD00003F000485FEA080C02D00FF2702C0DE001
:102BE0005FEA045C02D50FF2682C07E05FEAC47C60
:102BF00002D00FF2602C01E0AFF2700C4FF0FF3802
:102C000023F00043CDF850C065280CD006DC4528E1
:102C100009D046281DD047283DD13DE0662818D070
:102C200067287ED138E00021112F01DB112000E060
:102C3000781CCDE9000106A90EA8FFF7DDFCDDE94F
:102C40000F010E9A03910021009207F1010A0491ED
:102C50004DE04FF000400097CDE9011006A90EA805
:102C6000FFF7CAFCDDE90F0203920E9B11990022C7
:102C7000DDF80CA00093049211B9791C00EB010A55
:102C8000B7EB0A0004D4C0F1FF3007F1010A049049
:102C9000AAEB0700019044E0012F00DA0127002190
:102CA000112F01DD112000E03846CDE9000106A911
:102CB0000EA8FFF7A1FCDDE90F010E9A0391002198
:102CC00004910092BA4621070CD40399514500DAC9
:102CD0008A46BAF1010F05DD009AAAF10101515CA3
:102CE000302908D0B84202DA10F1040F06DA0121C7
:102CF000CDE9011015E0AAF10101E9E7002805DCA2
:102D0000049901440491AAEB000102E0411C5145E1
:102D100000DD8A460499401A401C01904FF00040A3
:102D20000290200704D40198504501DBCDF80480BF
:102D300000208DF84F0002980DF14F07B0F1004FC1
:102D400025D02B200E9002984FF0020800280CDAB4
:102D5000404202902D200E9007E00A210298FDF7D4
:102D60003AFC3031029007F8011DB8F10001A8F1DA
:102D70000108F2DC02980028EFD1791E0E98087045
:102D8000307800F0200040F0450007F8020D12A84E
:102D9000C01B00F107081498007800B1012000EB77
:102DA0000A01019801EBE07105984144401A401E68
:102DB0000590E00306D45B462146179A059800F07B
:102DC0005DF805441498007818B15A461799904751
:102DD0006D1CE00324D55B462146179A059800F048
:102DE0004DF805441CE00498002807DBDDE90301E9
:102DF000884203DD0098405C179901E01799302064
:102E00005A469047049805F10105401C049001982A
:102E1000401E019004D12E205A46179990476D1CF0
:102E2000BAF10001AAF1010ADDDC05E017F8010B97
:102E30005A46179990476D1CB8F10001A8F1010896
:102E4000F4DC5B462146179A0598ABE62D0000009E
:102E50002B000000200000002DE9F0410446002571
:102E60001E461746880404D405E039462020B047A2
:102E70006D1C641EF9D52846BDE8F0812DE9F041AE
:102E8000044600251E469046C80301D5302700E0C1
:102E90002027880404D505E041463846B0476D1C1C
:102EA000641EF9D52846BDE8F081000013B56423FF
:102EB000012269460248FEF775FE00981CBD00001D
:102EC000100100208AB0FEF797F9FFF7F6F9002409
:102ED000C64E0094019402940394B06940F004003B
:102EE000B061B06900F004000490B06940F00800DF
:102EF000B061B069BE4D00F00800049000220221CC
:102F00002846FDF7D4FE022001218DE8130003902E
:102F100069462846FDF7E4FD706940F001007061E4
:102F20007069002200F00100009011461020FEF7A9
:102F3000C1F91020FEF7B0F9002211461120FEF76A
:102F4000B9F91120FEF7A8F9AB48AA490160AB49CD
:102F5000C0E901144FF44041C0E903414461846178
:102F6000C4610462FDF7AEFEA348A5495430016078
:102F70004FF4E131C0E901140C21C460C0E90441FF
:102F80008461C461FEF7E2FCFFF73EF8FFF716F933
:102F9000994801229B495430FEF778FD994CDFF89F
:102FA00068A2A03CAB46A069012806D1FFF732F920
:102FB00000F0B6F9C820FDF781FD206A012806D18E
:102FC000FFF7B4F800F070F91420FDF777FDE06921
:102FD000012806D1FFF76AF800F02AF9C820FDF7AA
:102FE0006DFD606A01287DD1FFF714F9FFF75EF8E7
:102FF000216B606D0390FDF709F920F00040554604
:10300000A84201DB742000E0662020708146616BDD
:10301000A06D0090FDF7FAF820F00040A84201DB17
:10302000742000E0662060708046A16BE06D069021
:10303000FDF7ECF820F00040A84201DB742700E027
:103040006627A770E16BE06EFDF7E0F820F0004026
:10305000A84201DB742600E06626E670216C206F32
:10306000FDF7D4F820F00041AA46514501DB742554
:1030700000E066252571616C606FFDF7C7F820F0F0
:103080000041514501DB742000E066206071B9F118
:10309000740F54D05FF00001B8F1740F51D00022CA
:1030A0001143742F4FD000221143742E4DD00022B3
:1030B0001143742D4BD000221143742849D00020B5
:1030C000014338D00698FDF757FA0746884600981E
:1030D000FDF752FA05460E460398FDF74DFA0246F3
:1030E0000B4600E027E08DE8E00148A0FFF754FA26
:1030F000606FFDF741FA07468846206FFDF73CFAFE
:1031000005460E46E06EFDF737FA8DE8E00102460F
:103110000B4641A0FFF740FA606D2063A06D60632D
:10312000E06DA063E06EE063206F2064606F606418
:103130006420FDF7C3FCA06A01280CD051E00121F6
:10314000AAE70122ACE70122AEE70122B0E70122A3
:10315000B2E70120B4E7FEF7E9FFFFF75BF8FEF7FF
:10316000A5FFA06EFDF708FA07468846606EFDF7DA
:1031700003FA05460E46206EFDF7FEF98DE8E001E4
:1031800002460B4627A0FFF707FAE06DFDF7F4F9BA
:1031900007468846A06DFDF7EFF905460E46606DBF
:1031A000FDF7EAF98DE8E00102460B4617A0FFF7AC
:1031B000F3F9606FFDF7E0F907468846206FFDF7E9
:1031C000DBF905460E46E06EFDF7D6F98DE8E00125
:1031D00002460B4610A0FFF7DFF94FF47A70FDF7B7
:1031E0006DFC02215846FDF75BFDDCE60010024055
:1031F0000008014000540040BC000020801A060076
:1032000000440040A0000020CDCCCC3D6125667874
:1032100025667925667A0A006D2566782566792502
:10322000667A0A00722566702566792566650A0049
:103230002DE9FF47174CA06C642826DA164A616D09
:1032400042F82010894602F12801A56D41F820506E
:103250005032E16D42F820100846FDF78DF907461F
:1032600088462846FDF788F905460E464846FDF78C
:1032700083F98DE8E00102460B4608A0FFF78CF9C0
:10328000A06C401CA064BDE8FF870020A064E06142
:10329000F9E7000000000020500100207325667847
:1032A00025667925667A0A002DE9FF47174C206DBF
:1032B000642826DA164A216E42F82010894602F167
:1032C0002801656E41F820505032A16E42F820105E
:1032D0000846FDF751F9074688462846FDF74CF9A0
:1032E00005460E464846FDF747F98DE8E0010246DF
:1032F0000B4608A0FFF750F9206D401C2065BDE883
:10330000FF87002020652062F9E700000000002010
:10331000C80100206425667825667925667A0A004A
:103320002DE9FF47174CE06C642826DA164AE16E57
:1033300042F82010894602F12801256F41F82050FB
:103340005032616F42F820100846FDF715F9074624
:1033500088462846FDF710F905460E464846FDF713
:103360000BF98DE8E00102460B4608A0FFF714F9BF
:10337000E06C401CE064BDE8FF870020E064A061D1
:10338000F9E7000000000020400200206725667871
:1033900025667925667A0A0000000000000000001A
:1033A00001020304060708090000000001020304EB
:1033B000D033000800000020BC000000D825000821
:1033C0008C340008BC0000205C0D0000E8250008DB
:1033D00000000000000000000000000000000000ED
:1033E00000000000000000000000000000000000DD
:1033F000000000000000000000000000E8030000E2
:1034000000000000000000000000000000000000BC
:1034100000000000000000000000000000000000AC
:10342000000000000000000000000000000000009C
:10343000000000000000000000000000000000008C
:10344000000000000000000000000000000000007C
:10345000000000000000000000000000000000006C
:10346000000000000000000000000000000000005C
:10347000000000000000000001000000100000003B
:0C348000000000000024F4000000000028
:04000005080000ED02
:00000001FF
